{
  "_format": "hh-sol-artifact-1",
  "contractName": "DecentralAirbnb",
  "sourceName": "contracts/DecentralAirbnb.sol",
  "abi": [
    {
      "inputs": [
        {
          "internalType": "uint256",
          "name": "_listingFee",
          "type": "uint256"
        },
        {
          "internalType": "address",
          "name": "_priceFeedAddress",
          "type": "address"
        }
      ],
      "stateMutability": "nonpayable",
      "type": "constructor"
    },
    {
      "inputs": [],
      "name": "DecentralAirbnb__AlreadyBooked",
      "type": "error"
    },
    {
      "inputs": [],
      "name": "DecentralAirbnb__InsufficientAmount",
      "type": "error"
    },
    {
      "inputs": [],
      "name": "DecentralAirbnb__InvalidBookingPeriod",
      "type": "error"
    },
    {
      "inputs": [],
      "name": "DecentralAirbnb__InvalidFee",
      "type": "error"
    },
    {
      "inputs": [],
      "name": "DecentralAirbnb__InvalidRentalId",
      "type": "error"
    },
    {
      "inputs": [],
      "name": "DecentralAirbnb__OnlyAdmin",
      "type": "error"
    },
    {
      "inputs": [],
      "name": "DecentralAirbnb__TransferFailed",
      "type": "error"
    },
    {
      "anonymous": false,
      "inputs": [
        {
          "indexed": false,
          "internalType": "uint256",
          "name": "rentalId",
          "type": "uint256"
        },
        {
          "indexed": false,
          "internalType": "address",
          "name": "renter",
          "type": "address"
        },
        {
          "indexed": false,
          "internalType": "uint256",
          "name": "bookDateStart",
          "type": "uint256"
        },
        {
          "indexed": false,
          "internalType": "uint256",
          "name": "bookDateEnd",
          "type": "uint256"
        },
        {
          "indexed": false,
          "internalType": "uint256",
          "name": "timestamp",
          "type": "uint256"
        }
      ],
      "name": "NewBookAdded",
      "type": "event"
    },
    {
      "anonymous": false,
      "inputs": [
        {
          "indexed": false,
          "internalType": "uint256",
          "name": "id",
          "type": "uint256"
        },
        {
          "indexed": false,
          "internalType": "address",
          "name": "owner",
          "type": "address"
        },
        {
          "indexed": false,
          "internalType": "string",
          "name": "name",
          "type": "string"
        },
        {
          "indexed": false,
          "internalType": "string",
          "name": "city",
          "type": "string"
        },
        {
          "indexed": false,
          "internalType": "string",
          "name": "latitude",
          "type": "string"
        },
        {
          "indexed": false,
          "internalType": "string",
          "name": "longitude",
          "type": "string"
        },
        {
          "indexed": false,
          "internalType": "string",
          "name": "description",
          "type": "string"
        },
        {
          "indexed": false,
          "internalType": "string",
          "name": "imgUrl",
          "type": "string"
        },
        {
          "indexed": false,
          "internalType": "uint256",
          "name": "maxGuests",
          "type": "uint256"
        },
        {
          "indexed": false,
          "internalType": "uint256",
          "name": "pricePerDay",
          "type": "uint256"
        },
        {
          "indexed": false,
          "internalType": "uint256",
          "name": "timestamp",
          "type": "uint256"
        }
      ],
      "name": "NewRentalCreated",
      "type": "event"
    },
    {
      "inputs": [
        {
          "internalType": "string",
          "name": "_name",
          "type": "string"
        },
        {
          "internalType": "string",
          "name": "_city",
          "type": "string"
        },
        {
          "internalType": "string",
          "name": "_latitude",
          "type": "string"
        },
        {
          "internalType": "string",
          "name": "_longitude",
          "type": "string"
        },
        {
          "internalType": "string",
          "name": "_description",
          "type": "string"
        },
        {
          "internalType": "string",
          "name": "_imgUrl",
          "type": "string"
        },
        {
          "internalType": "uint256",
          "name": "_maxGuests",
          "type": "uint256"
        },
        {
          "internalType": "uint256",
          "name": "_pricePerDay",
          "type": "uint256"
        }
      ],
      "name": "addRental",
      "outputs": [],
      "stateMutability": "payable",
      "type": "function"
    },
    {
      "inputs": [],
      "name": "admin",
      "outputs": [
        {
          "internalType": "address",
          "name": "",
          "type": "address"
        }
      ],
      "stateMutability": "view",
      "type": "function"
    },
    {
      "inputs": [
        {
          "internalType": "uint256",
          "name": "_id",
          "type": "uint256"
        },
        {
          "internalType": "uint256",
          "name": "_fromDateTimestamp",
          "type": "uint256"
        },
        {
          "internalType": "uint256",
          "name": "_toDateTimestamp",
          "type": "uint256"
        }
      ],
      "name": "bookDates",
      "outputs": [],
      "stateMutability": "payable",
      "type": "function"
    },
    {
      "inputs": [
        {
          "internalType": "uint256",
          "name": "_newFee",
          "type": "uint256"
        }
      ],
      "name": "changeListingFee",
      "outputs": [],
      "stateMutability": "nonpayable",
      "type": "function"
    },
    {
      "inputs": [
        {
          "internalType": "uint256",
          "name": "amountInUSD",
          "type": "uint256"
        }
      ],
      "name": "convertFromUSD",
      "outputs": [
        {
          "internalType": "uint256",
          "name": "",
          "type": "uint256"
        }
      ],
      "stateMutability": "view",
      "type": "function"
    },
    {
      "inputs": [],
      "name": "getPrice",
      "outputs": [
        {
          "internalType": "uint256",
          "name": "",
          "type": "uint256"
        },
        {
          "internalType": "uint256",
          "name": "",
          "type": "uint256"
        }
      ],
      "stateMutability": "view",
      "type": "function"
    },
    {
      "inputs": [
        {
          "internalType": "uint256",
          "name": "_id",
          "type": "uint256"
        }
      ],
      "name": "getRentalBookings",
      "outputs": [
        {
          "components": [
            {
              "internalType": "address",
              "name": "renter",
              "type": "address"
            },
            {
              "internalType": "uint256",
              "name": "fromTimestamp",
              "type": "uint256"
            },
            {
              "internalType": "uint256",
              "name": "toTimestamp",
              "type": "uint256"
            }
          ],
          "internalType": "struct DecentralAirbnb.Booking[]",
          "name": "",
          "type": "tuple[]"
        }
      ],
      "stateMutability": "view",
      "type": "function"
    },
    {
      "inputs": [
        {
          "internalType": "uint256",
          "name": "_id",
          "type": "uint256"
        }
      ],
      "name": "getRentalInfo",
      "outputs": [
        {
          "components": [
            {
              "internalType": "uint256",
              "name": "id",
              "type": "uint256"
            },
            {
              "internalType": "address",
              "name": "owner",
              "type": "address"
            },
            {
              "internalType": "string",
              "name": "name",
              "type": "string"
            },
            {
              "internalType": "string",
              "name": "city",
              "type": "string"
            },
            {
              "internalType": "string",
              "name": "latitude",
              "type": "string"
            },
            {
              "internalType": "string",
              "name": "longitude",
              "type": "string"
            },
            {
              "internalType": "string",
              "name": "description",
              "type": "string"
            },
            {
              "internalType": "string",
              "name": "imgUrl",
              "type": "string"
            },
            {
              "internalType": "uint256",
              "name": "maxNumberOfGuests",
              "type": "uint256"
            },
            {
              "internalType": "uint256",
              "name": "pricePerDay",
              "type": "uint256"
            }
          ],
          "internalType": "struct DecentralAirbnb.RentalInfo",
          "name": "",
          "type": "tuple"
        }
      ],
      "stateMutability": "view",
      "type": "function"
    },
    {
      "inputs": [],
      "name": "getRentals",
      "outputs": [
        {
          "components": [
            {
              "internalType": "uint256",
              "name": "id",
              "type": "uint256"
            },
            {
              "internalType": "address",
              "name": "owner",
              "type": "address"
            },
            {
              "internalType": "string",
              "name": "name",
              "type": "string"
            },
            {
              "internalType": "string",
              "name": "city",
              "type": "string"
            },
            {
              "internalType": "string",
              "name": "latitude",
              "type": "string"
            },
            {
              "internalType": "string",
              "name": "longitude",
              "type": "string"
            },
            {
              "internalType": "string",
              "name": "description",
              "type": "string"
            },
            {
              "internalType": "string",
              "name": "imgUrl",
              "type": "string"
            },
            {
              "internalType": "uint256",
              "name": "maxNumberOfGuests",
              "type": "uint256"
            },
            {
              "internalType": "uint256",
              "name": "pricePerDay",
              "type": "uint256"
            }
          ],
          "internalType": "struct DecentralAirbnb.RentalInfo[]",
          "name": "",
          "type": "tuple[]"
        }
      ],
      "stateMutability": "view",
      "type": "function"
    },
    {
      "inputs": [],
      "name": "listingFee",
      "outputs": [
        {
          "internalType": "uint256",
          "name": "",
          "type": "uint256"
        }
      ],
      "stateMutability": "view",
      "type": "function"
    },
    {
      "inputs": [],
      "name": "priceFeedAddress",
      "outputs": [
        {
          "internalType": "address",
          "name": "",
          "type": "address"
        }
      ],
      "stateMutability": "view",
      "type": "function"
    },
    {
      "inputs": [
        {
          "internalType": "uint256",
          "name": "",
          "type": "uint256"
        }
      ],
      "name": "rentals",
      "outputs": [
        {
          "internalType": "uint256",
          "name": "id",
          "type": "uint256"
        },
        {
          "internalType": "address",
          "name": "owner",
          "type": "address"
        },
        {
          "internalType": "string",
          "name": "name",
          "type": "string"
        },
        {
          "internalType": "string",
          "name": "city",
          "type": "string"
        },
        {
          "internalType": "string",
          "name": "latitude",
          "type": "string"
        },
        {
          "internalType": "string",
          "name": "longitude",
          "type": "string"
        },
        {
          "internalType": "string",
          "name": "description",
          "type": "string"
        },
        {
          "internalType": "string",
          "name": "imgUrl",
          "type": "string"
        },
        {
          "internalType": "uint256",
          "name": "maxNumberOfGuests",
          "type": "uint256"
        },
        {
          "internalType": "uint256",
          "name": "pricePerDay",
          "type": "uint256"
        }
      ],
      "stateMutability": "view",
      "type": "function"
    },
    {
      "inputs": [],
      "name": "withdrawBalance",
      "outputs": [],
      "stateMutability": "nonpayable",
      "type": "function"
    }
  ],
  "bytecode": "0x608060405234801561001057600080fd5b506040516200241a3803806200241a83398101604081905261003191610067565b60018054336001600160a01b031991821617909155600292909255600080549092166001600160a01b03919091161790556100a4565b6000806040838503121561007a57600080fd5b825160208401519092506001600160a01b038116811461009957600080fd5b809150509250929050565b61236680620000b46000396000f3fe6080604052600436106100c25760003560e01c80637eb897241161007f5780639982aaeb116100595780639982aaeb14610204578063af94a1d114610217578063e0abca0b1461024d578063f851a4401461028557600080fd5b80637eb897241461018d57806395b36670146101ba57806398d5fdca146101da57600080fd5b806327dc3fbd146100c757806346e6e5fb146100fd5780635ea5da20146101125780635fd8c710146101345780636a1b7ecc1461014957806377f25f6f1461016d575b600080fd5b3480156100d357600080fd5b506100e76100e2366004611b82565b6102a5565b6040516100f49190611cc7565b60405180910390f35b61011061010b366004611cda565b610716565b005b34801561011e57600080fd5b50610127610cf8565b6040516100f49190611d06565b34801561014057600080fd5b506101106110f8565b34801561015557600080fd5b5061015f60025481565b6040519081526020016100f4565b34801561017957600080fd5b50610110610188366004611b82565b61119a565b34801561019957600080fd5b506101ad6101a8366004611b82565b6111ca565b6040516100f49190611d68565b3480156101c657600080fd5b5061015f6101d5366004611b82565b611279565b3480156101e657600080fd5b506101ef6112b6565b604080519283526020830191909152016100f4565b610110610212366004611e6d565b6113c0565b34801561022357600080fd5b50610237610232366004611b82565b6115fe565b6040516100f49a99989796959493929190611f77565b34801561025957600080fd5b5060005461026d906001600160a01b031681565b6040516001600160a01b0390911681526020016100f4565b34801561029157600080fd5b5060015461026d906001600160a01b031681565b6103046040518061014001604052806000815260200160006001600160a01b0316815260200160608152602001606081526020016060815260200160608152602001606081526020016060815260200160008152602001600081525090565b81600354811061032757604051632555990360e01b815260040160405180910390fd5b6004838154811061033a5761033a612022565b90600052602060002090600a020160405180610140016040529081600082015481526020016001820160009054906101000a90046001600160a01b03166001600160a01b03166001600160a01b0316815260200160028201805461039d90612038565b80601f01602080910402602001604051908101604052809291908181526020018280546103c990612038565b80156104165780601f106103eb57610100808354040283529160200191610416565b820191906000526020600020905b8154815290600101906020018083116103f957829003601f168201915b5050505050815260200160038201805461042f90612038565b80601f016020809104026020016040519081016040528092919081815260200182805461045b90612038565b80156104a85780601f1061047d576101008083540402835291602001916104a8565b820191906000526020600020905b81548152906001019060200180831161048b57829003601f168201915b505050505081526020016004820180546104c190612038565b80601f01602080910402602001604051908101604052809291908181526020018280546104ed90612038565b801561053a5780601f1061050f5761010080835404028352916020019161053a565b820191906000526020600020905b81548152906001019060200180831161051d57829003601f168201915b5050505050815260200160058201805461055390612038565b80601f016020809104026020016040519081016040528092919081815260200182805461057f90612038565b80156105cc5780601f106105a1576101008083540402835291602001916105cc565b820191906000526020600020905b8154815290600101906020018083116105af57829003601f168201915b505050505081526020016006820180546105e590612038565b80601f016020809104026020016040519081016040528092919081815260200182805461061190612038565b801561065e5780601f106106335761010080835404028352916020019161065e565b820191906000526020600020905b81548152906001019060200180831161064157829003601f168201915b5050505050815260200160078201805461067790612038565b80601f01602080910402602001604051908101604052809291908181526020018280546106a390612038565b80156106f05780601f106106c5576101008083540402835291602001916106f0565b820191906000526020600020905b8154815290600101906020018083116106d357829003601f168201915b505050505081526020016008820154815260200160098201548152505091505b50919050565b82600354811061073957604051632555990360e01b815260040160405180910390fd5b60006004858154811061074e5761074e612022565b90600052602060002090600a020160405180610140016040529081600082015481526020016001820160009054906101000a90046001600160a01b03166001600160a01b03166001600160a01b031681526020016002820180546107b190612038565b80601f01602080910402602001604051908101604052809291908181526020018280546107dd90612038565b801561082a5780601f106107ff5761010080835404028352916020019161082a565b820191906000526020600020905b81548152906001019060200180831161080d57829003601f168201915b5050505050815260200160038201805461084390612038565b80601f016020809104026020016040519081016040528092919081815260200182805461086f90612038565b80156108bc5780601f10610891576101008083540402835291602001916108bc565b820191906000526020600020905b81548152906001019060200180831161089f57829003601f168201915b505050505081526020016004820180546108d590612038565b80601f016020809104026020016040519081016040528092919081815260200182805461090190612038565b801561094e5780601f106109235761010080835404028352916020019161094e565b820191906000526020600020905b81548152906001019060200180831161093157829003601f168201915b5050505050815260200160058201805461096790612038565b80601f016020809104026020016040519081016040528092919081815260200182805461099390612038565b80156109e05780601f106109b5576101008083540402835291602001916109e0565b820191906000526020600020905b8154815290600101906020018083116109c357829003601f168201915b505050505081526020016006820180546109f990612038565b80601f0160208091040260200160405190810160405280929190818152602001828054610a2590612038565b8015610a725780601f10610a4757610100808354040283529160200191610a72565b820191906000526020600020905b815481529060010190602001808311610a5557829003601f168201915b50505050508152602001600782018054610a8b90612038565b80601f0160208091040260200160405190810160405280929190818152602001828054610ab790612038565b8015610b045780601f10610ad957610100808354040283529160200191610b04565b820191906000526020600020905b815481529060010190602001808311610ae757829003601f168201915b5050509183525050600882015460208201526009909101546040909101529050600062015180610b348686612083565b610b3e919061209a565b90506001811015610b62576040516383b5c53d60e01b815260040160405180910390fd5b600081610b73846101200151611279565b610b7d91906120bc565b9050803414610b9f5760405163c7f7e3ff60e01b815260040160405180910390fd5b610baa878787611999565b15610bc85760405163920cadb560e01b815260040160405180910390fd5b600087815260056020908152604080832081516060810183523381528084018b81528184018b81528354600180820186559488528688209351600390910290930180546001600160a01b0319166001600160a01b03948516178155915193820193909355915160029092019190915591860151905191169034908381818185875af1925050503d8060008114610c7a576040519150601f19603f3d011682016040523d82523d6000602084013e610c7f565b606091505b5050905080610ca15760405163f285722d60e01b815260040160405180910390fd5b60408051898152336020820152908101889052606081018790524260808201527f8145f5f7785888577f4b907341639304ff8a5ad886ca425f513abe27b44285659060a00160405180910390a15050505050505050565b60606004805480602002602001604051908101604052809291908181526020016000905b828210156110ef5760008481526020908190206040805161014081018252600a86029092018054835260018101546001600160a01b03169383019390935260028301805492939291840191610d7090612038565b80601f0160208091040260200160405190810160405280929190818152602001828054610d9c90612038565b8015610de95780601f10610dbe57610100808354040283529160200191610de9565b820191906000526020600020905b815481529060010190602001808311610dcc57829003601f168201915b50505050508152602001600382018054610e0290612038565b80601f0160208091040260200160405190810160405280929190818152602001828054610e2e90612038565b8015610e7b5780601f10610e5057610100808354040283529160200191610e7b565b820191906000526020600020905b815481529060010190602001808311610e5e57829003601f168201915b50505050508152602001600482018054610e9490612038565b80601f0160208091040260200160405190810160405280929190818152602001828054610ec090612038565b8015610f0d5780601f10610ee257610100808354040283529160200191610f0d565b820191906000526020600020905b815481529060010190602001808311610ef057829003601f168201915b50505050508152602001600582018054610f2690612038565b80601f0160208091040260200160405190810160405280929190818152602001828054610f5290612038565b8015610f9f5780601f10610f7457610100808354040283529160200191610f9f565b820191906000526020600020905b815481529060010190602001808311610f8257829003601f168201915b50505050508152602001600682018054610fb890612038565b80601f0160208091040260200160405190810160405280929190818152602001828054610fe490612038565b80156110315780601f1061100657610100808354040283529160200191611031565b820191906000526020600020905b81548152906001019060200180831161101457829003601f168201915b5050505050815260200160078201805461104a90612038565b80601f016020809104026020016040519081016040528092919081815260200182805461107690612038565b80156110c35780601f10611098576101008083540402835291602001916110c3565b820191906000526020600020905b8154815290600101906020018083116110a657829003601f168201915b505050505081526020016008820154815260200160098201548152505081526020019060010190610d1c565b50505050905090565b6001546001600160a01b0316331461112357604051631c10506d60e11b815260040160405180910390fd5b6001546040516000916001600160a01b03169047908381818185875af1925050503d8060008114611170576040519150601f19603f3d011682016040523d82523d6000602084013e611175565b606091505b50509050806111975760405163f285722d60e01b815260040160405180910390fd5b50565b6001546001600160a01b031633146111c557604051631c10506d60e11b815260040160405180910390fd5b600255565b60608160035481106111ef57604051632555990360e01b815260040160405180910390fd5b600083815260056020908152604080832080548251818502810185019093528083529193909284015b8282101561126d576000848152602090819020604080516060810182526003860290920180546001600160a01b0316835260018082015484860152600290910154918301919091529083529092019101611218565b50505050915050919050565b60008060006112866112b6565b909250905060008261129983600a6121c1565b6112a390876120bc565b6112ad919061209a565b95945050505050565b6000805460408051633fabe5a360e21b8152905183926001600160a01b0316918391839163feaf968c9160048083019260a0929190829003018186803b1580156112ff57600080fd5b505afa158015611313573d6000803e3d6000fd5b505050506040513d601f19601f8201168201806040525081019061133791906121ec565b5050509150506000826001600160a01b031663313ce5676040518163ffffffff1660e01b815260040160206040518083038186803b15801561137857600080fd5b505afa15801561138c573d6000803e3d6000fd5b505050506040513d601f19601f820116820180604052508101906113b0919061223c565b919560ff90921694509092505050565b60025434146113e2576040516319e7970560e21b815260040160405180910390fd5b60035460408051610140810182528281523360208083019182529282018c8152606083018c9052608083018b905260a083018a905260c0830189905260e08301889052610100830187905261012083018690526004805460018101825560009190915283517f8a35acfbc15ff81a39ae7d344fd709f28e8600b4aa8c65c6b64bfe7fe36bd19b600a90920291820190815592517f8a35acfbc15ff81a39ae7d344fd709f28e8600b4aa8c65c6b64bfe7fe36bd19c820180546001600160a01b0319166001600160a01b0390921691909117905590518051939485946114ed937f8a35acfbc15ff81a39ae7d344fd709f28e8600b4aa8c65c6b64bfe7fe36bd19d019290910190611ae9565b5060608201518051611509916003840191602090910190611ae9565b5060808201518051611525916004840191602090910190611ae9565b5060a08201518051611541916005840191602090910190611ae9565b5060c0820151805161155d916006840191602090910190611ae9565b5060e08201518051611579916007840191602090910190611ae9565b50610100820151600882015561012090910151600990910155600380549060006115a28361225f565b91905055507fa0c4bfdadb448904df95d75b6b9a5559d01fd1e5dcabf5b10f6c358eecfde4c782338c8c8c8c8c8c8c8c426040516115ea9b9a9998979695949392919061227a565b60405180910390a150505050505050505050565b6004818154811061160e57600080fd5b60009182526020909120600a90910201805460018201546002830180549294506001600160a01b03909116929161164490612038565b80601f016020809104026020016040519081016040528092919081815260200182805461167090612038565b80156116bd5780601f10611692576101008083540402835291602001916116bd565b820191906000526020600020905b8154815290600101906020018083116116a057829003601f168201915b5050505050908060030180546116d290612038565b80601f01602080910402602001604051908101604052809291908181526020018280546116fe90612038565b801561174b5780601f106117205761010080835404028352916020019161174b565b820191906000526020600020905b81548152906001019060200180831161172e57829003601f168201915b50505050509080600401805461176090612038565b80601f016020809104026020016040519081016040528092919081815260200182805461178c90612038565b80156117d95780601f106117ae576101008083540402835291602001916117d9565b820191906000526020600020905b8154815290600101906020018083116117bc57829003601f168201915b5050505050908060050180546117ee90612038565b80601f016020809104026020016040519081016040528092919081815260200182805461181a90612038565b80156118675780601f1061183c57610100808354040283529160200191611867565b820191906000526020600020905b81548152906001019060200180831161184a57829003601f168201915b50505050509080600601805461187c90612038565b80601f01602080910402602001604051908101604052809291908181526020018280546118a890612038565b80156118f55780601f106118ca576101008083540402835291602001916118f5565b820191906000526020600020905b8154815290600101906020018083116118d857829003601f168201915b50505050509080600701805461190a90612038565b80601f016020809104026020016040519081016040528092919081815260200182805461193690612038565b80156119835780601f1061195857610100808354040283529160200191611983565b820191906000526020600020905b81548152906001019060200180831161196657829003601f168201915b505050505090806008015490806009015490508a565b600083815260056020908152604080832080548251818502810185019093528083528493849084015b82821015611a17576000848152602090819020604080516060810182526003860290920180546001600160a01b03168352600180820154848601526002909101549183019190915290835290920191016119c2565b50505050905060005b8151811015611adb57818181518110611a3b57611a3b612022565b6020026020010151602001518510158015611a735750818181518110611a6357611a63612022565b6020026020010151604001518511155b80611ac35750818181518110611a8b57611a8b612022565b6020026020010151602001518410158015611ac35750818181518110611ab357611ab3612022565b6020026020010151604001518411155b15611ad357600192505050611ae2565b600101611a20565b5060009150505b9392505050565b828054611af590612038565b90600052602060002090601f016020900481019282611b175760008555611b5d565b82601f10611b3057805160ff1916838001178555611b5d565b82800160010185558215611b5d579182015b82811115611b5d578251825591602001919060010190611b42565b50611b69929150611b6d565b5090565b5b80821115611b695760008155600101611b6e565b600060208284031215611b9457600080fd5b5035919050565b6000815180845260005b81811015611bc157602081850181015186830182015201611ba5565b81811115611bd3576000602083870101525b50601f01601f19169290920160200192915050565b6000610140825184526020830151611c0b60208601826001600160a01b03169052565b506040830151816040860152611c2382860182611b9b565b91505060608301518482036060860152611c3d8282611b9b565b91505060808301518482036080860152611c578282611b9b565b91505060a083015184820360a0860152611c718282611b9b565b91505060c083015184820360c0860152611c8b8282611b9b565b91505060e083015184820360e0860152611ca58282611b9b565b6101008581015190870152610120948501519490950193909352509192915050565b602081526000611ae26020830184611be8565b600080600060608486031215611cef57600080fd5b505081359360208301359350604090920135919050565b6000602080830181845280855180835260408601915060408160051b870101925083870160005b82811015611d5b57603f19888603018452611d49858351611be8565b94509285019290850190600101611d2d565b5092979650505050505050565b602080825282518282018190526000919060409081850190868401855b82811015611dbd57815180516001600160a01b0316855286810151878601528501518585015260609093019290850190600101611d85565b5091979650505050505050565b634e487b7160e01b600052604160045260246000fd5b600082601f830112611df157600080fd5b813567ffffffffffffffff80821115611e0c57611e0c611dca565b604051601f8301601f19908116603f01168101908282118183101715611e3457611e34611dca565b81604052838152866020858801011115611e4d57600080fd5b836020870160208301376000602085830101528094505050505092915050565b600080600080600080600080610100898b031215611e8a57600080fd5b883567ffffffffffffffff80821115611ea257600080fd5b611eae8c838d01611de0565b995060208b0135915080821115611ec457600080fd5b611ed08c838d01611de0565b985060408b0135915080821115611ee657600080fd5b611ef28c838d01611de0565b975060608b0135915080821115611f0857600080fd5b611f148c838d01611de0565b965060808b0135915080821115611f2a57600080fd5b611f368c838d01611de0565b955060a08b0135915080821115611f4c57600080fd5b50611f598b828c01611de0565b93505060c0890135915060e089013590509295985092959890939650565b8a81526001600160a01b038a16602082015261014060408201819052600090611fa28382018c611b9b565b90508281036060840152611fb6818b611b9b565b90508281036080840152611fca818a611b9b565b905082810360a0840152611fde8189611b9b565b905082810360c0840152611ff28188611b9b565b905082810360e08401526120068187611b9b565b6101008401959095525050610120015298975050505050505050565b634e487b7160e01b600052603260045260246000fd5b600181811c9082168061204c57607f821691505b6020821081141561071057634e487b7160e01b600052602260045260246000fd5b634e487b7160e01b600052601160045260246000fd5b6000828210156120955761209561206d565b500390565b6000826120b757634e487b7160e01b600052601260045260246000fd5b500490565b60008160001904831182151516156120d6576120d661206d565b500290565b600181815b808511156121165781600019048211156120fc576120fc61206d565b8085161561210957918102915b93841c93908002906120e0565b509250929050565b60008261212d575060016121bb565b8161213a575060006121bb565b8160018114612150576002811461215a57612176565b60019150506121bb565b60ff84111561216b5761216b61206d565b50506001821b6121bb565b5060208310610133831016604e8410600b8410161715612199575081810a6121bb565b6121a383836120db565b80600019048211156121b7576121b761206d565b0290505b92915050565b6000611ae2838361211e565b805169ffffffffffffffffffff811681146121e757600080fd5b919050565b600080600080600060a0868803121561220457600080fd5b61220d866121cd565b9450602086015193506040860151925060608601519150612230608087016121cd565b90509295509295909350565b60006020828403121561224e57600080fd5b815160ff81168114611ae257600080fd5b60006000198214156122735761227361206d565b5060010190565b8b81526001600160a01b038b166020820152610160604082018190526000906122a58382018d611b9b565b905082810360608401526122b9818c611b9b565b905082810360808401526122cd818b611b9b565b905082810360a08401526122e1818a611b9b565b905082810360c08401526122f58189611b9b565b905082810360e08401526123098188611b9b565b6101008401969096525050610120810192909252610140909101529897505050505050505056fea264697066735822122055bf7cab43681aa49d120c3688d8edf50a023296fb92897e20afbf73d146398064736f6c63430008090033",
  "linkReferences": {},
  "deployedLinkReferences": {}
}