{
  "_format": "hh-sol-artifact-1",
  "contractName": "PriceConverter",
  "sourceName": "contracts/PriceConverter.sol",
  "abi": [
    {
      "inputs": [
        {
          "internalType": "uint256",
          "name": "amountInUSD",
          "type": "uint256"
        }
      ],
      "name": "convertFromUSD",
      "outputs": [
        {
          "internalType": "uint256",
          "name": "",
          "type": "uint256"
        }
      ],
      "stateMutability": "view",
      "type": "function"
    },
    {
      "inputs": [],
      "name": "getPrice",
      "outputs": [
        {
          "internalType": "uint256",
          "name": "",
          "type": "uint256"
        },
        {
          "internalType": "uint256",
          "name": "",
          "type": "uint256"
        }
      ],
      "stateMutability": "view",
      "type": "function"
    },
    {
      "inputs": [],
      "name": "priceFeedAddress",
      "outputs": [
        {
          "internalType": "address",
          "name": "",
          "type": "address"
        }
      ],
      "stateMutability": "view",
      "type": "function"
    }
  ],
  "bytecode": "0x608060405234801561001057600080fd5b5061042c806100206000396000f3fe608060405234801561001057600080fd5b50600436106100415760003560e01c806395b366701461004657806398d5fdca1461006c578063e0abca0b14610089575b600080fd5b6100596100543660046101fb565b6100b4565b6040519081526020015b60405180910390f35b6100746100f1565b60408051928352602083019190915201610063565b60005461009c906001600160a01b031681565b6040516001600160a01b039091168152602001610063565b60008060006100c16100f1565b90925090506000826100d483600a610310565b6100de9087610323565b6100e89190610342565b95945050505050565b6000805460408051633fabe5a360e21b8152905183926001600160a01b0316918391839163feaf968c9160048083019260a0929190829003018186803b15801561013a57600080fd5b505afa15801561014e573d6000803e3d6000fd5b505050506040513d601f19601f820116820180604052508101906101729190610383565b5050509150506000826001600160a01b031663313ce5676040518163ffffffff1660e01b815260040160206040518083038186803b1580156101b357600080fd5b505afa1580156101c7573d6000803e3d6000fd5b505050506040513d601f19601f820116820180604052508101906101eb91906103d3565b919560ff90921694509092505050565b60006020828403121561020d57600080fd5b5035919050565b634e487b7160e01b600052601160045260246000fd5b600181815b8085111561026557816000190482111561024b5761024b610214565b8085161561025857918102915b93841c939080029061022f565b509250929050565b60008261027c5750600161030a565b816102895750600061030a565b816001811461029f57600281146102a9576102c5565b600191505061030a565b60ff8411156102ba576102ba610214565b50506001821b61030a565b5060208310610133831016604e8410600b84101617156102e8575081810a61030a565b6102f2838361022a565b806000190482111561030657610306610214565b0290505b92915050565b600061031c838361026d565b9392505050565b600081600019048311821515161561033d5761033d610214565b500290565b60008261035f57634e487b7160e01b600052601260045260246000fd5b500490565b805169ffffffffffffffffffff8116811461037e57600080fd5b919050565b600080600080600060a0868803121561039b57600080fd5b6103a486610364565b94506020860151935060408601519250606086015191506103c760808701610364565b90509295509295909350565b6000602082840312156103e557600080fd5b815160ff8116811461031c57600080fdfea2646970667358221220acee53ccb3de7b095bc04b96cb59c2500506bba898f6a4e151da18bee1ebc23564736f6c63430008090033",
  "linkReferences": {},
  "deployedLinkReferences": {}
}