{"contracts/PriceConverter.sol":{"PriceConverter":{"abi":[{"inputs":[{"internalType":"uint256","name":"amountInUSD","type":"uint256"}],"name":"convertFromUSD","outputs":[{"internalType":"uint256","name":"","type":"uint256"}],"stateMutability":"view","type":"function"},{"inputs":[],"name":"getPrice","outputs":[{"internalType":"uint256","name":"","type":"uint256"},{"internalType":"uint256","name":"","type":"uint256"}],"stateMutability":"view","type":"function"},{"inputs":[],"name":"priceFeedAddress","outputs":[{"internalType":"address","name":"","type":"address"}],"stateMutability":"view","type":"function"}],"evm":{"bytecode":{"linkReferences":{},"object":"608060405234801561001057600080fd5b5061042c806100206000396000f3fe608060405234801561001057600080fd5b50600436106100415760003560e01c806395b366701461004657806398d5fdca1461006c578063e0abca0b14610089575b600080fd5b6100596100543660046101fb565b6100b4565b6040519081526020015b60405180910390f35b6100746100f1565b60408051928352602083019190915201610063565b60005461009c906001600160a01b031681565b6040516001600160a01b039091168152602001610063565b60008060006100c16100f1565b90925090506000826100d483600a610310565b6100de9087610323565b6100e89190610342565b95945050505050565b6000805460408051633fabe5a360e21b8152905183926001600160a01b0316918391839163feaf968c9160048083019260a0929190829003018186803b15801561013a57600080fd5b505afa15801561014e573d6000803e3d6000fd5b505050506040513d601f19601f820116820180604052508101906101729190610383565b5050509150506000826001600160a01b031663313ce5676040518163ffffffff1660e01b815260040160206040518083038186803b1580156101b357600080fd5b505afa1580156101c7573d6000803e3d6000fd5b505050506040513d601f19601f820116820180604052508101906101eb91906103d3565b919560ff90921694509092505050565b60006020828403121561020d57600080fd5b5035919050565b634e487b7160e01b600052601160045260246000fd5b600181815b8085111561026557816000190482111561024b5761024b610214565b8085161561025857918102915b93841c939080029061022f565b509250929050565b60008261027c5750600161030a565b816102895750600061030a565b816001811461029f57600281146102a9576102c5565b600191505061030a565b60ff8411156102ba576102ba610214565b50506001821b61030a565b5060208310610133831016604e8410600b84101617156102e8575081810a61030a565b6102f2838361022a565b806000190482111561030657610306610214565b0290505b92915050565b600061031c838361026d565b9392505050565b600081600019048311821515161561033d5761033d610214565b500290565b60008261035f57634e487b7160e01b600052601260045260246000fd5b500490565b805169ffffffffffffffffffff8116811461037e57600080fd5b919050565b600080600080600060a0868803121561039b57600080fd5b6103a486610364565b94506020860151935060408601519250606086015191506103c760808701610364565b90509295509295909350565b6000602082840312156103e557600080fd5b815160ff8116811461031c57600080fdfea2646970667358221220acee53ccb3de7b095bc04b96cb59c2500506bba898f6a4e151da18bee1ebc23564736f6c63430008090033","opcodes":"PUSH1 0x80 PUSH1 0x40 MSTORE CALLVALUE DUP1 ISZERO PUSH2 0x10 JUMPI PUSH1 0x0 DUP1 REVERT JUMPDEST POP PUSH2 0x42C DUP1 PUSH2 0x20 PUSH1 0x0 CODECOPY PUSH1 0x0 RETURN INVALID PUSH1 0x80 PUSH1 0x40 MSTORE CALLVALUE DUP1 ISZERO PUSH2 0x10 JUMPI PUSH1 0x0 DUP1 REVERT JUMPDEST POP PUSH1 0x4 CALLDATASIZE LT PUSH2 0x41 JUMPI PUSH1 0x0 CALLDATALOAD PUSH1 0xE0 SHR DUP1 PUSH4 0x95B36670 EQ PUSH2 0x46 JUMPI DUP1 PUSH4 0x98D5FDCA EQ PUSH2 0x6C JUMPI DUP1 PUSH4 0xE0ABCA0B EQ PUSH2 0x89 JUMPI JUMPDEST PUSH1 0x0 DUP1 REVERT JUMPDEST PUSH2 0x59 PUSH2 0x54 CALLDATASIZE PUSH1 0x4 PUSH2 0x1FB JUMP JUMPDEST PUSH2 0xB4 JUMP JUMPDEST PUSH1 0x40 MLOAD SWAP1 DUP2 MSTORE PUSH1 0x20 ADD JUMPDEST PUSH1 0x40 MLOAD DUP1 SWAP2 SUB SWAP1 RETURN JUMPDEST PUSH2 0x74 PUSH2 0xF1 JUMP JUMPDEST PUSH1 0x40 DUP1 MLOAD SWAP3 DUP4 MSTORE PUSH1 0x20 DUP4 ADD SWAP2 SWAP1 SWAP2 MSTORE ADD PUSH2 0x63 JUMP JUMPDEST PUSH1 0x0 SLOAD PUSH2 0x9C SWAP1 PUSH1 0x1 PUSH1 0x1 PUSH1 0xA0 SHL SUB AND DUP2 JUMP JUMPDEST PUSH1 0x40 MLOAD PUSH1 0x1 PUSH1 0x1 PUSH1 0xA0 SHL SUB SWAP1 SWAP2 AND DUP2 MSTORE PUSH1 0x20 ADD PUSH2 0x63 JUMP JUMPDEST PUSH1 0x0 DUP1 PUSH1 0x0 PUSH2 0xC1 PUSH2 0xF1 JUMP JUMPDEST SWAP1 SWAP3 POP SWAP1 POP PUSH1 0x0 DUP3 PUSH2 0xD4 DUP4 PUSH1 0xA PUSH2 0x310 JUMP JUMPDEST PUSH2 0xDE SWAP1 DUP8 PUSH2 0x323 JUMP JUMPDEST PUSH2 0xE8 SWAP2 SWAP1 PUSH2 0x342 JUMP JUMPDEST SWAP6 SWAP5 POP POP POP POP POP JUMP JUMPDEST PUSH1 0x0 DUP1 SLOAD PUSH1 0x40 DUP1 MLOAD PUSH4 0x3FABE5A3 PUSH1 0xE2 SHL DUP2 MSTORE SWAP1 MLOAD DUP4 SWAP3 PUSH1 0x1 PUSH1 0x1 PUSH1 0xA0 SHL SUB AND SWAP2 DUP4 SWAP2 DUP4 SWAP2 PUSH4 0xFEAF968C SWAP2 PUSH1 0x4 DUP1 DUP4 ADD SWAP3 PUSH1 0xA0 SWAP3 SWAP2 SWAP1 DUP3 SWAP1 SUB ADD DUP2 DUP7 DUP1 EXTCODESIZE ISZERO DUP1 ISZERO PUSH2 0x13A JUMPI PUSH1 0x0 DUP1 REVERT JUMPDEST POP GAS STATICCALL ISZERO DUP1 ISZERO PUSH2 0x14E JUMPI RETURNDATASIZE PUSH1 0x0 DUP1 RETURNDATACOPY RETURNDATASIZE PUSH1 0x0 REVERT JUMPDEST POP POP POP POP PUSH1 0x40 MLOAD RETURNDATASIZE PUSH1 0x1F NOT PUSH1 0x1F DUP3 ADD AND DUP3 ADD DUP1 PUSH1 0x40 MSTORE POP DUP2 ADD SWAP1 PUSH2 0x172 SWAP2 SWAP1 PUSH2 0x383 JUMP JUMPDEST POP POP POP SWAP2 POP POP PUSH1 0x0 DUP3 PUSH1 0x1 PUSH1 0x1 PUSH1 0xA0 SHL SUB AND PUSH4 0x313CE567 PUSH1 0x40 MLOAD DUP2 PUSH4 0xFFFFFFFF AND PUSH1 0xE0 SHL DUP2 MSTORE PUSH1 0x4 ADD PUSH1 0x20 PUSH1 0x40 MLOAD DUP1 DUP4 SUB DUP2 DUP7 DUP1 EXTCODESIZE ISZERO DUP1 ISZERO PUSH2 0x1B3 JUMPI PUSH1 0x0 DUP1 REVERT JUMPDEST POP GAS STATICCALL ISZERO DUP1 ISZERO PUSH2 0x1C7 JUMPI RETURNDATASIZE PUSH1 0x0 DUP1 RETURNDATACOPY RETURNDATASIZE PUSH1 0x0 REVERT JUMPDEST POP POP POP POP PUSH1 0x40 MLOAD RETURNDATASIZE PUSH1 0x1F NOT PUSH1 0x1F DUP3 ADD AND DUP3 ADD DUP1 PUSH1 0x40 MSTORE POP DUP2 ADD SWAP1 PUSH2 0x1EB SWAP2 SWAP1 PUSH2 0x3D3 JUMP JUMPDEST SWAP2 SWAP6 PUSH1 0xFF SWAP1 SWAP3 AND SWAP5 POP SWAP1 SWAP3 POP POP POP JUMP JUMPDEST PUSH1 0x0 PUSH1 0x20 DUP3 DUP5 SUB SLT ISZERO PUSH2 0x20D JUMPI PUSH1 0x0 DUP1 REVERT JUMPDEST POP CALLDATALOAD SWAP2 SWAP1 POP JUMP JUMPDEST PUSH4 0x4E487B71 PUSH1 0xE0 SHL PUSH1 0x0 MSTORE PUSH1 0x11 PUSH1 0x4 MSTORE PUSH1 0x24 PUSH1 0x0 REVERT JUMPDEST PUSH1 0x1 DUP2 DUP2 JUMPDEST DUP1 DUP6 GT ISZERO PUSH2 0x265 JUMPI DUP2 PUSH1 0x0 NOT DIV DUP3 GT ISZERO PUSH2 0x24B JUMPI PUSH2 0x24B PUSH2 0x214 JUMP JUMPDEST DUP1 DUP6 AND ISZERO PUSH2 0x258 JUMPI SWAP2 DUP2 MUL SWAP2 JUMPDEST SWAP4 DUP5 SHR SWAP4 SWAP1 DUP1 MUL SWAP1 PUSH2 0x22F JUMP JUMPDEST POP SWAP3 POP SWAP3 SWAP1 POP JUMP JUMPDEST PUSH1 0x0 DUP3 PUSH2 0x27C JUMPI POP PUSH1 0x1 PUSH2 0x30A JUMP JUMPDEST DUP2 PUSH2 0x289 JUMPI POP PUSH1 0x0 PUSH2 0x30A JUMP JUMPDEST DUP2 PUSH1 0x1 DUP2 EQ PUSH2 0x29F JUMPI PUSH1 0x2 DUP2 EQ PUSH2 0x2A9 JUMPI PUSH2 0x2C5 JUMP JUMPDEST PUSH1 0x1 SWAP2 POP POP PUSH2 0x30A JUMP JUMPDEST PUSH1 0xFF DUP5 GT ISZERO PUSH2 0x2BA JUMPI PUSH2 0x2BA PUSH2 0x214 JUMP JUMPDEST POP POP PUSH1 0x1 DUP3 SHL PUSH2 0x30A JUMP JUMPDEST POP PUSH1 0x20 DUP4 LT PUSH2 0x133 DUP4 LT AND PUSH1 0x4E DUP5 LT PUSH1 0xB DUP5 LT AND OR ISZERO PUSH2 0x2E8 JUMPI POP DUP2 DUP2 EXP PUSH2 0x30A JUMP JUMPDEST PUSH2 0x2F2 DUP4 DUP4 PUSH2 0x22A JUMP JUMPDEST DUP1 PUSH1 0x0 NOT DIV DUP3 GT ISZERO PUSH2 0x306 JUMPI PUSH2 0x306 PUSH2 0x214 JUMP JUMPDEST MUL SWAP1 POP JUMPDEST SWAP3 SWAP2 POP POP JUMP JUMPDEST PUSH1 0x0 PUSH2 0x31C DUP4 DUP4 PUSH2 0x26D JUMP JUMPDEST SWAP4 SWAP3 POP POP POP JUMP JUMPDEST PUSH1 0x0 DUP2 PUSH1 0x0 NOT DIV DUP4 GT DUP3 ISZERO ISZERO AND ISZERO PUSH2 0x33D JUMPI PUSH2 0x33D PUSH2 0x214 JUMP JUMPDEST POP MUL SWAP1 JUMP JUMPDEST PUSH1 0x0 DUP3 PUSH2 0x35F JUMPI PUSH4 0x4E487B71 PUSH1 0xE0 SHL PUSH1 0x0 MSTORE PUSH1 0x12 PUSH1 0x4 MSTORE PUSH1 0x24 PUSH1 0x0 REVERT JUMPDEST POP DIV SWAP1 JUMP JUMPDEST DUP1 MLOAD PUSH10 0xFFFFFFFFFFFFFFFFFFFF DUP2 AND DUP2 EQ PUSH2 0x37E JUMPI PUSH1 0x0 DUP1 REVERT JUMPDEST SWAP2 SWAP1 POP JUMP JUMPDEST PUSH1 0x0 DUP1 PUSH1 0x0 DUP1 PUSH1 0x0 PUSH1 0xA0 DUP7 DUP9 SUB SLT ISZERO PUSH2 0x39B JUMPI PUSH1 0x0 DUP1 REVERT JUMPDEST PUSH2 0x3A4 DUP7 PUSH2 0x364 JUMP JUMPDEST SWAP5 POP PUSH1 0x20 DUP7 ADD MLOAD SWAP4 POP PUSH1 0x40 DUP7 ADD MLOAD SWAP3 POP PUSH1 0x60 DUP7 ADD MLOAD SWAP2 POP PUSH2 0x3C7 PUSH1 0x80 DUP8 ADD PUSH2 0x364 JUMP JUMPDEST SWAP1 POP SWAP3 SWAP6 POP SWAP3 SWAP6 SWAP1 SWAP4 POP JUMP JUMPDEST PUSH1 0x0 PUSH1 0x20 DUP3 DUP5 SUB SLT ISZERO PUSH2 0x3E5 JUMPI PUSH1 0x0 DUP1 REVERT JUMPDEST DUP2 MLOAD PUSH1 0xFF DUP2 AND DUP2 EQ PUSH2 0x31C JUMPI PUSH1 0x0 DUP1 REVERT INVALID LOG2 PUSH5 0x6970667358 0x22 SLT KECCAK256 0xAC 0xEE MSTORE8 0xCC 0xB3 0xDE PUSH28 0x95BC04B96CB59C2500506BBA898F6A4E151DA18BEE1EBC23564736F PUSH13 0x63430008090033000000000000 "},"methodIdentifiers":{"convertFromUSD(uint256)":"95b36670","getPrice()":"98d5fdca","priceFeedAddress()":"e0abca0b"}}}}}